{
  "contractName": "FileStorage",
  "abi": [
    {
      "inputs": [
        {
          "internalType": "string",
          "name": "",
          "type": "string"
        }
      ],
      "name": "files",
      "outputs": [
        {
          "internalType": "string",
          "name": "ipfsHash",
          "type": "string"
        },
        {
          "internalType": "string",
          "name": "fileName",
          "type": "string"
        },
        {
          "internalType": "address",
          "name": "owner",
          "type": "address"
        }
      ],
      "stateMutability": "view",
      "type": "function",
      "constant": true
    },
    {
      "inputs": [
        {
          "internalType": "string",
          "name": "_ipfsHash",
          "type": "string"
        },
        {
          "internalType": "string",
          "name": "_fileName",
          "type": "string"
        }
      ],
      "name": "storeFile",
      "outputs": [],
      "stateMutability": "nonpayable",
      "type": "function"
    },
    {
      "inputs": [
        {
          "internalType": "string",
          "name": "_ipfsHash",
          "type": "string"
        }
      ],
      "name": "getFile",
      "outputs": [
        {
          "internalType": "string",
          "name": "",
          "type": "string"
        },
        {
          "internalType": "string",
          "name": "",
          "type": "string"
        },
        {
          "internalType": "address",
          "name": "",
          "type": "address"
        }
      ],
      "stateMutability": "view",
      "type": "function",
      "constant": true
    }
  ],
  "bytecode": "0x608060405234801561000f575f80fd5b50610c638061001d5f395ff3fe608060405234801561000f575f80fd5b506004361061003f575f3560e01c806320de107014610043578063e0876aa81461005f578063e775576114610091575b5f80fd5b61005d60048036038101906100589190610682565b6100c3565b005b610079600480360381019061007491906106f8565b61020e565b604051610088939291906107f8565b60405180910390f35b6100ab60048036038101906100a691906106f8565b6103cd565b6040516100ba939291906107f8565b60405180910390f35b5f825111610106576040517f08c379a00000000000000000000000000000000000000000000000000000000081526004016100fd90610885565b60405180910390fd5b5f815111610149576040517f08c379a0000000000000000000000000000000000000000000000000000000008152600401610140906108ed565b60405180910390fd5b60405180606001604052808381526020018281526020013373ffffffffffffffffffffffffffffffffffffffff168152505f836040516101899190610945565b90815260200160405180910390205f820151815f0190816101aa9190610b5e565b5060208201518160010190816101c09190610b5e565b506040820151816002015f6101000a81548173ffffffffffffffffffffffffffffffffffffffff021916908373ffffffffffffffffffffffffffffffffffffffff1602179055509050505050565b6060805f805f856040516102229190610945565b90815260200160405180910390206040518060600160405290815f8201805461024a90610988565b80601f016020809104026020016040519081016040528092919081815260200182805461027690610988565b80156102c15780601f10610298576101008083540402835291602001916102c1565b820191905f5260205f20905b8154815290600101906020018083116102a457829003601f168201915b505050505081526020016001820180546102da90610988565b80601f016020809104026020016040519081016040528092919081815260200182805461030690610988565b80156103515780601f1061032857610100808354040283529160200191610351565b820191905f5260205f20905b81548152906001019060200180831161033457829003601f168201915b50505050508152602001600282015f9054906101000a900473ffffffffffffffffffffffffffffffffffffffff1673ffffffffffffffffffffffffffffffffffffffff1673ffffffffffffffffffffffffffffffffffffffff16815250509050805f015181602001518260400151935093509350509193909250565b5f818051602081018201805184825260208301602085012081835280955050505050505f91509050805f01805461040390610988565b80601f016020809104026020016040519081016040528092919081815260200182805461042f90610988565b801561047a5780601f106104515761010080835404028352916020019161047a565b820191905f5260205f20905b81548152906001019060200180831161045d57829003601f168201915b50505050509080600101805461048f90610988565b80601f01602080910402602001604051908101604052809291908181526020018280546104bb90610988565b80156105065780601f106104dd57610100808354040283529160200191610506565b820191905f5260205f20905b8154815290600101906020018083116104e957829003601f168201915b505050505090806002015f9054906101000a900473ffffffffffffffffffffffffffffffffffffffff16905083565b5f604051905090565b5f80fd5b5f80fd5b5f80fd5b5f80fd5b5f601f19601f8301169050919050565b7f4e487b71000000000000000000000000000000000000000000000000000000005f52604160045260245ffd5b6105948261054e565b810181811067ffffffffffffffff821117156105b3576105b261055e565b5b80604052505050565b5f6105c5610535565b90506105d1828261058b565b919050565b5f67ffffffffffffffff8211156105f0576105ef61055e565b5b6105f98261054e565b9050602081019050919050565b828183375f83830152505050565b5f610626610621846105d6565b6105bc565b9050828152602081018484840111156106425761064161054a565b5b61064d848285610606565b509392505050565b5f82601f83011261066957610668610546565b5b8135610679848260208601610614565b91505092915050565b5f80604083850312156106985761069761053e565b5b5f83013567ffffffffffffffff8111156106b5576106b4610542565b5b6106c185828601610655565b925050602083013567ffffffffffffffff8111156106e2576106e1610542565b5b6106ee85828601610655565b9150509250929050565b5f6020828403121561070d5761070c61053e565b5b5f82013567ffffffffffffffff81111561072a57610729610542565b5b61073684828501610655565b91505092915050565b5f81519050919050565b5f82825260208201905092915050565b5f5b8381101561077657808201518184015260208101905061075b565b5f8484015250505050565b5f61078b8261073f565b6107958185610749565b93506107a5818560208601610759565b6107ae8161054e565b840191505092915050565b5f73ffffffffffffffffffffffffffffffffffffffff82169050919050565b5f6107e2826107b9565b9050919050565b6107f2816107d8565b82525050565b5f6060820190508181035f8301526108108186610781565b905081810360208301526108248185610781565b905061083360408301846107e9565b949350505050565b7f49504653206861736820697320726571756972656400000000000000000000005f82015250565b5f61086f601583610749565b915061087a8261083b565b602082019050919050565b5f6020820190508181035f83015261089c81610863565b9050919050565b7f46696c65206e616d6520697320726571756972656400000000000000000000005f82015250565b5f6108d7601583610749565b91506108e2826108a3565b602082019050919050565b5f6020820190508181035f830152610904816108cb565b9050919050565b5f81905092915050565b5f61091f8261073f565b610929818561090b565b9350610939818560208601610759565b80840191505092915050565b5f6109508284610915565b915081905092915050565b7f4e487b71000000000000000000000000000000000000000000000000000000005f52602260045260245ffd5b5f600282049050600182168061099f57607f821691505b6020821081036109b2576109b161095b565b5b50919050565b5f819050815f5260205f209050919050565b5f6020601f8301049050919050565b5f82821b905092915050565b5f60088302610a147fffffffffffffffffffffffffffffffffffffffffffffffffffffffffffffffff826109d9565b610a1e86836109d9565b95508019841693508086168417925050509392505050565b5f819050919050565b5f819050919050565b5f610a62610a5d610a5884610a36565b610a3f565b610a36565b9050919050565b5f819050919050565b610a7b83610a48565b610a8f610a8782610a69565b8484546109e5565b825550505050565b5f90565b610aa3610a97565b610aae818484610a72565b505050565b5b81811015610ad157610ac65f82610a9b565b600181019050610ab4565b5050565b601f821115610b1657610ae7816109b8565b610af0846109ca565b81016020851015610aff578190505b610b13610b0b856109ca565b830182610ab3565b50505b505050565b5f82821c905092915050565b5f610b365f1984600802610b1b565b1980831691505092915050565b5f610b4e8383610b27565b9150826002028217905092915050565b610b678261073f565b67ffffffffffffffff811115610b8057610b7f61055e565b5b610b8a8254610988565b610b95828285610ad5565b5f60209050601f831160018114610bc6575f8415610bb4578287015190505b610bbe8582610b43565b865550610c25565b601f198416610bd4866109b8565b5f5b82811015610bfb57848901518255600182019150602085019450602081019050610bd6565b86831015610c185784890151610c14601f891682610b27565b8355505b6001600288020188555050505b50505050505056fea2646970667358221220ca224a495cf639cc31571b2eb3268246fba97f81071ed2a04d7bf88b9c88ba6864736f6c63430008150033",
  "immutableReferences": {},
  "source": "// SPDX-License-Identifier: MIT\npragma solidity ^0.8.0;\n\ncontract FileStorage {\n    struct File {\n        string ipfsHash;\n        string fileName;\n        address owner;\n    }\n\n    mapping(string => File) public files;\n\n    function storeFile(string memory _ipfsHash, string memory _fileName) public {\n        require(bytes(_ipfsHash).length > 0, \"IPFS hash is required\");\n        require(bytes(_fileName).length > 0, \"File name is required\");\n\n        files[_ipfsHash] = File(_ipfsHash, _fileName, msg.sender);\n    }\n\n    function getFile(string memory _ipfsHash) public view returns (string memory, string memory, address) {\n        File memory file = files[_ipfsHash];\n        return (file.ipfsHash, file.fileName, file.owner);\n    }\n}\n",
  "sourcePath": "/home/home/Desktop/DONT_DELETE/BTC-sudparis/Presentation/ipfs-blockchain/contracts/FileStorage.sol",
  "compiler": {
    "name": "solc",
    "version": "0.8.21+commit.d9974bed.Emscripten.clang"
  },
  "schemaVersion": "3.4.16",
  "updatedAt": "2025-01-13T00:21:33.774Z",
  "networkType": "ethereum",
  "devdoc": {
    "kind": "dev",
    "methods": {},
    "version": 1
  },
  "userdoc": {
    "kind": "user",
    "methods": {},
    "version": 1
  }
}